:020000040000fa
:080000000002040000000000f2
:020000040000fa
:10040000af8920000e7f24000e018800000000004c
:100410000c00070060c3200001002000110007004d
:10042000000020000000e000020032000000020096
:10043000000000000a0c0200000000000040da008a
:100440000000fe004440a900400220000000e0003f
:100450000300320000002000a00188004440a800f2
:100460000000060091018800800078000000eb0089
:1004700015003700e280400032a0b4009101ba00bc
:10048000e280400032a0b4009102ba00e280400055
:1004900032a0b4000002eb00472bde00f507b200eb
:1004a000602ce10004003a000059eb008301e900f0
:1004b000fdff3e00040037006128e100010032002a
:1004c0000082eb00040007001101ba000200e00006
:1004d000e8ff3a00000006003159ba008301e90044
:1004e0000c0032002159ba008301e90008003200f3
:1004f0000400e00003003a00e280400032a0b400b3
:10050000f5ff370011d9ba008301e900faff3a007c
:100510008100e800e180400032a0b4000000060045
:100520000040da000000fe0003f0a200889fbe0039
:100530008a9fbe008c1f78001d0107002401330034
:100540006450e1004f0032006420e10052003200ac
:1005500003826c0007003b000905d0000306d000b1
:10056000820f54000c065d000200390002003200c8
:1005700089017800030678008582550004003d005b
:100580000003fd008103fd008502ea008b85420027
:10059000840f720002003b0060001000e080180031
:1005a0006011b8000005eb007a28e1000a0039006c
:1005b00006007800c75ddd00f707b2008780750090
:1005c0002d003700828171000a017800610560000a
:1005d0008180d1000080d3008502e900f9ff3b0053
:1005e000060440008784480002003b0060041400b9
:1005f000e0841c000988a300070032008a81710092
:1006000082817100610164008904d1000884d300f3
:100610008b05e800170037000978a30013003a00a3
:100620000b00e000130034008b05e90008044400cf
:1006300089844c000a4474000978a3000d003a0034
:100640000b00e000070034008b05e90008044400bb
:1006500089844c0001003a000b0020000978a300b7
:10066000f7ff32000001eb000200370082817100c9
:100670000a017800e60007000cf0a70001f0a000d6
:10068000dc0037006420e10002003a00838f6c0038
:10069000dc0033000801be000200be00d5003700b8
:1006a000889fbe008a9fbe008c1f7800c000070094
:1006b000c700330003866c006450e1002400320060
:1006c0006420e100270032006150e1002200320086
:1006d0006120e100210032008b854200eb07b10070
:1006e0000134b800003ab8000804420089844a0086
:1006f000013ab8000030b8008880400009014a0083
:1007000004003300000040008180480002014900dd
:100710008b05e900c909dd0083017000010032008a
:1007200013002000c814de004814dd004709de0075
:100730001200b200c808de0008847000b400070090
:1007400001f0a1000cf0a70001f0a000a900370003
:100750006120e100ab0032000801be000200be00d3
:10076000f7ff37006150e100fcff3a00a5003700b9
:10077000f4ff2f00cc0037000001be00e5000700a9
:100780000470a70003f0a1006509b1001600320053
:100790000d0035006828e10006003500f0ff2f004d
:1007a000f1ff27000300e00013003b0001002800d8
:1007b0000000050000004000818048008502e9003b
:1007c000fcff3a0008003700f88f420002003c00ae
:1007d0008000eb00000005008100d1000080d30004
:1007e0008502e800fcff3a000300e00002003b0045
:1007f00060001000e080180000000600889fbe0026
:100800008a9fbe008c1f78006900070070003300cb
:1008100003866c006450e1002e0032006420e10089
:10082000330032006150e1002f0032006120e1000e
:100830003100320085855500eb07b000090020002b
:1008400008042000050037000804440089844c0097
:100850000a0031000603430087834b000001530068
:1008600081815b00f8ff33000203be000800a00096
:100870000804440089844c00f6ff3900c639dd00c5
:100880008301730001003200130020008904d100ad
:100890000884d3000998a300050032000800a700cf
:1008a0000300a0008904d1000884d3008b05e80070
:1008b0008904d1000884d3000001eb000281d2003a
:1008c0005300070001f0a1000cf0a70001f0a00008
:1008d000480037006420e1004a0032000801be00f1
:1008e0000200be00f7ff37006120e1004500320042
:1008f0006000b800f3ff37000000200001f8270077
:10090000f0ff3700889fbe008a9fbe000105780077
:100910000100e0000400350008003c000000e00099
:10092000200032000500370060001000e080180051
:1009300002003b0001f02c001a0037000004be004a
:100940006011b8006b0920000982cf000200390055
:100950000882cf000441b000694252000e0032000c
:1009600008003b0082817100610164008904d100ac
:100970000884d3008b05e8000442e800f9ff3a0040
:10098000050037000804440089844c008b05e90009
:100990000442e900fbff3a001d0007000af0a7002f
:1009a00001f0a0004f05be004f04be00000006008d
:1009b0000004be00570007000003be000405be008f
:1009c0000200be0053000700844f750000000600bf
:1009d0000200be006450e100050036006420e10022
:1009e000020036000968a30001003a000800be00ba
:1009f0000160a0004f0678004f05be004f04be0006
:100a000000000600f0ff2f00f1ff2700f9ff37007c
:100a100081002000618055000b003d000b0020008c
:100a200061fe2f000100e1001d0034008281710091
:100a3000610164008904d1000884d3000000e8004b
:100a4000faff3a00710020006100640003007000aa
:100a5000020060000900320061044400e0844c00a0
:100a60000988a500050032008b05e8006808e10050
:100a700002003a008904d1000884d300f20f20005c
:100a80000258e10005003d00c75ddd00f907b20036
:100a90008980750008007800000006000bf8270028
:100aa0008b00780000000500889fbe008a9fbe0072
:100ab000841f7800beff07004f007800110033004c
:100ac000f0ff2f00838f6c0006003b0004056500db
:100ad0000a00a7000800370009f0a6001000200057
:100ae00008003700820f5400838f5c000300390038
:100af0001000200001003e000000200009f0a700c7
:100b00000000ea004f05be004f04be000000e000f8
:100b100000000600c70ade00f107b200f50fb200c0
:100b200008003200e1cf4200020032000170a00054
:100b300024000500810f7000010032000408050048
:100b400044000500810f700002003a001400050007
:100b50008502e9000000400081c04800fcff3b0026
:080b60000170a0002400050053
:020000040000fa
:0200000401f009
:04000c00f8ff0000f9
:020000040000fa
:0200000401f009
:040010007dff000070
:020000040000fa
:0200000401f009
:040014007fff00006a
:020000040000fa
:0200000401f009
:04001c00dfff000002
:020000040000fa
:1000080090020000900200009002000090020000a0
:100018009002000090020000900200009002000090
:100028009002000090020000900200001e080000ec
:100038009002000090020000900200009002000070
:10004800b00a000090020000900200009002000038
:100058009002000090020000900200009002000050
:100068009002000090020000900200009002000040
:100078009002000090020000900200009002000030
:100088009002000090020000900200009002000020
:100098009002000090020000900200009002000010
:1000a8009002000090020000900200009002000000
:1000b80090020000900200009002000090020000f0
:1000c80090020000900200009002000090020000e0
:1000d80090020000900200009002000090020000d0
:1000e80090020000900200009002000090020000c0
:1000f80090020000900200009002000090020000b0
:1001080090020000900200003e09000090020000ea
:10011800900200009002000090020000900200008f
:10012800900200009002000090020000900200007f
:10013800900200009002000090020000900200006f
:100148009002000090020000900200007009000078
:10015800900200009002000090020000900200004f
:10016800900200009002000090020000900200003f
:10017800900200009002000090020000900200002f
:10018800900200009002000090020000900200001f
:10019800900200009002000090020000900200000f
:1001a80090020000900200009002000090020000ff
:1001b80090020000900200009002000090020000ef
:1001c80090020000900200009002000090020000df
:1001d80090020000900200009002000090020000cf
:1001e80090020000900200009002000090020000bf
:0801f8009002000090020000db
:020000040000fa
:10020800900200009002000090020000900200009e
:10021800900200009002000090020000900200008e
:100228009002000090020000900200001e080000ea
:10023800900200009002000090020000900200006e
:10024800b00a000090020000900200009002000036
:10025800900200009002000090020000900200004e
:10026800900200009002000090020000900200003e
:10027800900200009002000090020000900200002e
:10028800900200009002000090020000900200001e
:10029800900200009002000090020000900200000e
:1002a80090020000900200009002000090020000fe
:1002b80090020000900200009002000090020000ee
:1002c80090020000900200009002000090020000de
:1002d80090020000900200009002000090020000ce
:1002e80090020000900200009002000090020000be
:1002f80090020000900200009002000090020000ae
:1003080090020000900200003e09000090020000e8
:10031800900200009002000090020000900200008d
:10032800900200009002000090020000900200007d
:10033800900200009002000090020000900200006d
:100348009002000090020000900200007009000076
:10035800900200009002000090020000900200004d
:10036800900200009002000090020000900200003d
:10037800900200009002000090020000900200002d
:10038800900200009002000090020000900200001d
:10039800900200009002000090020000900200000d
:1003a80090020000900200009002000090020000fd
:1003b80090020000900200009002000090020000ed
:1003c80090020000900200009002000090020000dd
:1003d80090020000900200009002000090020000cd
:1003e80090020000900200009002000090020000bd
:0803f8009002000090020000d9
:020000040000fa
:100b680000000000c8420000000000000000000073
:100b7800cdcc00004c3e000000000000b04000005a
:100b880000000000803f000000000000a0400000be
:100b9800cdcc0000cc3d0000000000008c420000dd
:080ba800d00f000049400000dd
:020000040000fa
:100bb0000000fa0005e1a9000421a90004c1a90070
:100bc000411020009140780000c3b30000c07000c5
:100bd00004e1b7000000eb000008880090d023007b
:100be000100888008460a9009460a8000080fa00c2
:100bf000000006000000fa000000eb0080428800c0
:100c00006000b80090428800a14288006000b800ef
:100c1000b0428800c14288006000b800d04288001d
:100c2000e14288006000b800f0428800014388007b
:100c30006000b80010438800214388006000b800bd
:100c400030438800414388006000b800504388006a
:100c5000614388006000b8007043880081438800c9
:100c60006000b80090438800a14388006000b8008d
:100c7000b0438800c14388006000b800d0438800ba
:100c8000e14388006000b800f04388000144880018
:100c90003f010700c6ff07000080fa0000000600c1
:100ca0001400fa00889fbe002007980031079800c2
:100cb000420798005307980064079800750798004a
:100cc000060f9800170f98006e019000fe0190002b
:100cd0004e009000de00900013fe07000e09900009
:100ce0009e0990006efe07002e019000be0190004c
:100cf0000efe07000004be006e019000fe01900091
:100d00004e009000de00900008fe07003eb99700fc
:100d1000ceb9970062fe07000001be000800be00c9
:100d200002fe0700008fbe00a22d8400b32d8400b8
:100d30001e00be008efe07000000e00001003c0027
:100d400003003700a02d8400b12d8400008fbe0069
:100d5000a02d8400b12d840001f0a2001e01be0070
:100d600083fe07000000e00001003c0004003700a3
:100d7000a02d8400b12d840001f0a200008fbe00e0
:100d80001e00be004f04be000080fa0000000600f6
:100d90000c00fa00889fbe008a9fbe0040079800a2
:100da0004e00900050079800de009000e28f500047
:100db0001f0032005e009000e20f500007003c0070
:100dc000de0090000100e0000b0032005e009000a9
:100dd000e10f50000e00320031003700de009000bd
:100de000e38f50001c0032005e009000e40f5000c2
:100df000220032002a0037006000b8002007980067
:100e0000310798006000b800008fbe00290037004d
:100e1000e02d8400f12d8400200798003107980010
:100e2000e02d8400f12d8400008fbe0021003700ea
:100e3000e02d8400f12d840001f0a200200798002d
:100e400031079800e02d8400f12d840001f0a2000c
:100e5000008fbe0017003700e02d8400f12d8400c4
:100e60002007980031079800e02d8400f12d8400c0
:100e700001f0a200008fbe000e003700e02d8400bc
:100e8000f12d840001f0a20020079800310798009e
:100e9000e02d8400f12d8400008fbe000500370096
:100ea0006000b80020079800310798006000b80083
:100eb000008fbe0092428000a34280002e0090006e
:100ec000be00900098fd070090438800a143880071
:100ed000b2428000c34280001e00be0092fd0700a7
:100ee000b0438800c1438800202e8400312e840046
:100ef000022e8400132e840054438000654380003a
:100f000098438000a9438000da438000eb438000cf
:100f1000809fbe000203be000801be000a00be00a2
:100f20005fff0700e4875700d0438800e143880053
:100f3000602e8400712e8400422e8400532e840083
:100f40007443800085438000b8438000c94380001b
:100f5000fa4380000b448000809fbe000203be0065
:100f60000801be000a00be004dff0700e4875700dd
:100f7000f04388000144880090438000a143800032
:100f800050438800614388007043800081438000a3
:100f900070438800814388004f05be004f04be00a7
:100fa0000080fa00000006000600fa001007980012
:100fb000210798000000eb00000f78002e00900041
:100fc00073ff07001e009000e10f50000b003a0075
:100fd000d0438000e143800002002000831c2400f5
:100fe000affd070002002600a35e24004ffd0700ae
:100ff000e1fd0700000f78000d0037001e00900093
:10100000e20f50000a003a00f043800001448000e3
:1010100002002000831c2c00a1fd07000200260016
:10102000a35e240041fd0700d3fd0700000f7800f8
:101030001e0078000080fa00000006003600f8006c
:10104000809fbe00829fbe00849fbe00869fbe0020
:101050003400f80000002000a00188000000fa0021
:10106000804280000000e0000c003a00d800070039
:101070001044800021448000d0428800e142880072
:101080003044800041448000f042880001438800e1
:1010900010002000804288001f003700cc000700ad
:1010a00010448000214480001043880021438800c0
:1010b0003044800041448000304388004143880030
:1010c0000000eb0080428800104380002143800034
:1010d000d2428000e342800013fd0700020020009e
:1010e000832c2400c5fd070090428800a14288009f
:1010f0003043800041438000f2428000034380007f
:1011000009fd070002002000832c2400bbfd07001e
:10111000b0428800c14288008460a9000080fa00c3
:101120003400f9004f03be004f02be004f01be0065
:101130004f00be003600f900004006000000fa0033
:101140006000b80010448800214488006000b800a6
:1011500030448800414488000000eb00504488007f
:101160000000eb00604488000000eb007044880041
:101170000000eb00804488000000eb0090448800f1
:101180000000eb00a04488000080fa000000060088
:101190000000fa00e9ff0700d462a900d482a90088
:1011a000cca2a900ccc2a900d062a800d082a8001d
:1011b000c8a2a800c8c2a800c16920009140780058
:1011c00000ceb30000c060003041b3009ce6b70021
:1011d000d16920009140780000ceb30000c06000cb
:1011e0004041b3009de6b700016a200091407800bd
:1011f00000ceb30000c060005040b300a0e6b700ce
:10120000116a20009140780000ceb30000c0600059
:101210006040b300a1e6b7000000eb00000f8800bb
:101220000000eb00800f8800e1c1bf007040b300f8
:10123000e1e1b700f1c1bf007040b300f1e1b700d8
:10124000e0e1a80070162000300f88007016200022
:10125000b00f88000000eb00200f88000000eb00ba
:10126000a00f88009b40a8009d60a8008b40a900ab
:101270008d60a9000080fa0000000600801f780041
:101280003400f80000002000a00188000000fa00ef
:10129000e1c1bf00684060000004e00006003200c9
:1012a000704480000000e800704488000000eb00fb
:1012b0009044880005003700704480000000e90079
:1012c0007044880010002000904488008b40a900e2
:1012d0000080fa003400f9004f007800004006005a
:1012e000801f78003400f80000002000a001880072
:1012f0000000fa00f1c1bf00684060000004e00097
:1013000006003200804480000000e800804488002d
:101310000000eb00a04488000500370080448000f6
:101320000000e9008044880010002000a0448800ec
:101330008d60a9000080fa003400f9004f007800a9
:10134000004006000400fa00904480000000e00025
:1013500005003200200f800081e92f0001004000cd
:101360001007980002003700200f80001007980037
:10137000a04480000000e00005003200a00f8000c3
:1013800081e92f0001004000000f780002003700c3
:10139000a00f8000000f78007144800080162000ac
:1013a0000088b900800078001e0090000080400096
:1013b0005044880081448000801620000088b900d5
:1013c0001e004000604488000080fa000000060013
:1013d0000000fa00dbff070050448000cf80de00f1
:1013e00048fd0700a22e8400b32e8400acfc070049
:1013f000822e8400932e8400a9fc070002002000a6
:10140000433b2400fdfc0700104488002144880071
:1014100060448000cf80de003afd0700a22e8400e9
:10142000b32e84009efc0700822e8400932e84003d
:101430009bfc070002002000433b2400effc070058
:1014400030448800414488000080fa000000060013
:101450000000fa00cce2a900cd02a900c8e2a90070
:10146000c902a900716c20009140780000ceb30041
:1014700000c060002041b300c7e6b700816c2000c7
:101480009140780000ceb30000c060003041b3004e
:10149000c8e6b7000500070016000700d5fd0700e5
:1014a00013e1a8000080fa00000006000000fa0026
:1014b00013e1a9001221a90012c1a90021112000e5
:1014c00091407800f0ccb30000c060000044a00060
:1014d00012e1b7000000eb005008880000352c0036
:1014e000700888008500a9009500a8000080fa0017
:1014f000000006000000fa0041182000914078002a
:1015000080cfb30000c0600084e1b7008461a80010
:10151000411820009140780080cfb30000c06000e7
:101520006040b30084e1b700a1182000914078002a
:1015300080cfb30000c060008ae1b7008a61a800d4
:10154000a11820009140780080cfb30000c0600057
:101550006040b3008ae1b7000080fa000000060096
:101560003600f800809fbe00829fbe00849fbe00b0
:10157000869fbe003400f80000002000a001880013
:101580000000fa00090007008500a9000080fa00a9
:101590003400f9004f03be004f02be004f01be00f1
:1015a0004f00be003600f900004006000200fa00bd
:1015b000c0448000000f78001e007800e20f500049
:1015c000230032001e007800e20f500007003e00aa
:1015d0001e0078000000e0000b0032001e007800c2
:1015e000e10f500011003200340037001e00780077
:1015f000e30f50001f0032001e007800e40f50007f
:10160000250032002d003700d422a900d402a90001
:10161000cc62a900cc42a9000000eb002d0007001d
:101620000000eb003300070028003700d422a90097
:10163000d402a800cc62a800cc42a900100020006f
:1016400024000700100020002a0007001f003700b8
:10165000d422a800d402a900cc62a900cc42a800e0
:10166000200020001b0007002000200021000700b0
:1016700016003700d422a900d402a800cc62a90029
:10168000cc42a9001000200012000700200020001a
:10169000180007000d003700d422a900d402a900c9
:1016a000cc62a800cc42a90020002000090007005d
:1016b000100020000f000700040037000000eb00be
:1016c000040007000000eb000a0007000080fa0099
:1016d000000006000200fa00000f78009e0078006b
:1016e0001000200030fe0700000c88000080fa0087
:1016f000000006000200fa00000f78009e0078004b
:101700002000200028fe0700300c88000080fa002e
:10171000000006000000fa00e0012000303a8800d6
:1017200044c7bf00f043b20044e7b7004174200053
:101730009140780000ceb30000c0600044e7b700dd
:101740003200200081072000a0092000337420000f
:101750008149780080497800824978001200200091
:101760006104200070052000237420008149780066
:10177000804978008249780043c7bf0002c7b300a0
:101780008240600000c3b30080cf5000faff3a00ef
:101790000080fa00000006000000fa00d422a90030
:1017a000d402a900cc62a900cc42a900d022a90091
:1017b000d002a900c862a900c842a9002ce3a80071
:1017c0002cc3a8002ca3a8002c83a8000080fa003a
:1017d000000006000000fa0011e1a9001021a90094
:1017e00010c1a900011120009140780000c3b3008e
:1017f00000c0700010e1b7000000eb003008880066
:1018000090d023006008880011e1a8000080fa0051
:10181000000006000000fa00beff0700deff070020
:10182000ecff07000aff070005e1a80013e1a8008c
:1018300010002000c04488000600370084c0bf00ac
:1018400001c8b300014060000004e000fbff32006b
:1018500084e0a900b04480000000e000f7ff3a00f7
:0c1860000000eb000080fa000000060011
:020000040000fa
:10186c0096080000020000000200000001000000c9
:10187c0098080000020000000200000000000000b8
:10188c005008000032000000000000008208000038
:0c189c001400000000000000000000002c
:00000001FF
