:020000040000fa
:080000000002040000000000f2
:020000040000fa
:10040000af8420000e7f24000e0188000000000051
:100410000c000700e0c120000100200011000700cf
:10042000000020000000e000020032000000020096
:1004300000000000ee0b0200000000000040da00a7
:100440000000fe004440a900800120000000e00000
:100450000300320000002000a00188004440a800f2
:100460000000060091018800800078000000eb0089
:1004700015003700e280400032a0b4009101ba00bc
:10048000e280400032a0b4009102ba00e280400055
:1004900032a0b4000002eb00472bde00f507b200eb
:1004a000602ce10004003a000059eb008301e900f0
:1004b000fdff3e00040037006128e100010032002a
:1004c0000082eb00040007001101ba000200e00006
:1004d000e8ff3a00000006003159ba008301e90044
:1004e0000c0032002159ba008301e90008003200f3
:1004f0000400e00003003a00e280400032a0b400b3
:10050000f5ff370011d9ba008301e900faff3a007c
:100510008100e800e180400032a0b4000000060045
:100520000040da000000fe0003f0a200889fbe0039
:100530008a9fbe008c1f7800260107002d01330022
:100540006450e1004f0032006420e10052003200ac
:1005500003826c0007003b000905d0000306d000b1
:10056000820f54000c065d000200390002003200c8
:1005700089017800030678008582550004003d005b
:100580000003fd008103fd008502ea008b85420027
:10059000840f720002003b0060001000e080180031
:1005a0006011b8000005eb007a28e1000a0039006c
:1005b00006007800c75ddd00f707b2008780750090
:1005c0002d003700828171000a017800610560000a
:1005d0008180d1000080d3008502e900f9ff3b0053
:1005e000060440008784480002003b0060041400b9
:1005f000e0841c000988a300070032008a81710092
:1006000082817100610164008904d1000884d300f3
:100610008b05e800170037000978a30013003a00a3
:100620000b00e000130034008b05e90008044400cf
:1006300089844c000a4474000978a3000d003a0034
:100640000b00e000070034008b05e90008044400bb
:1006500089844c0001003a000b0020000978a300b7
:10066000f7ff32000001eb000200370082817100c9
:100670000a0178009c0007000cf0a70001f0a00020
:10068000e50037006420e10002003a00838f6c002f
:10069000e50033000801be000200be00de003700a6
:1006a000889fbe008a9fbe008c1f7800c90007008b
:1006b000d000330003866c006450e1002e0032004d
:1006c0006420e100330032006150e1002f0032006d
:1006d0006120e1003100320085855500eb07b00054
:1006e0000900200008042000050037000804440029
:1006f00089844c000a0031000603430087834b00c5
:100700000001530081815b00f8ff33000203be004b
:100710000800a0000804440089844c00f6ff39005a
:10072000c639dd0083017300010032001300200090
:100730008904d1000884d3000998a3000500320081
:100740000800a7000300a0008904d1000884d3009a
:100750008b05e8008904d1000884d3000001eb0078
:100760000281d2006000070001f0a1000cf0a70098
:1007700001f0a000a80037006420e100aa003200c8
:100780000801be000200be00f7ff37006120e10053
:10079000a50032006000b800f3ff37000000200021
:1007a00001f82700f0ff370014002000d5003700c3
:1007b000f4ff2f00d30037000001be0070000700d7
:1007c0000470a70003f0a1006509b1001600320013
:1007d0000d0035006828e10006003500f0ff2f000d
:1007e000f1ff27000300e00013003b000100280098
:1007f0000000050000004000818048008502e900fb
:10080000fcff3a0008003700f88f420002003c006d
:100810008000eb00000005008100d1000080d300c3
:100820008502e800fcff3a000300e00002003b0004
:1008300060001000e080180000000600889fbe00e5
:100840008a9fbe00010578000100e0000400350029
:1008500008003c000000e0002000320005003700e6
:1008600060001000e080180002003b0001f02c0046
:100870001a0037000004be006011b8006b092000a8
:100880000982cf00020039000882cf000441b00085
:10089000694252000e00320008003b008281710064
:1008a000610164008904d1000884d3008b05e8004d
:1008b0000442e800f9ff3a0005003700080444004c
:1008c00089844c008b05e9000442e900fbff3a00f3
:1008d000050007000af0a70001f0a0004f05be00c8
:1008e0004f04be000000060081002000618055001a
:1008f0000b003d000b00200061fe2f000100e10015
:100900001d00340082817100610164008904d100fe
:100910000884d3000000e800faff3a0071002000cc
:1009200061006400030070000200600009003200f2
:1009300061044400e0844c000988a50005003200f1
:100940008b05e8006808e10002003a008904d10044
:100950000884d300f20f20000258e10005003d009a
:10096000c75ddd00f907b2008980750008007800d6
:10097000000006000bf827008b007800000005003f
:10098000c70ade00f107b200f50fb200080032001e
:10099000e1cf4200020032000170a00024000500f7
:1009a000810f7000010032000408050044000500ba
:1009b000810f700002003a00140005008502e90072
:1009c0000000400081c04800fcff3b000170a00017
:1009d000240005000004be00e9ff07000003be007c
:1009e0000405be000200be00e5ff0700844f75004d
:1009f000000006000200be006450e1000500360061
:100a00006420e100020036000968a30001003a00fa
:100a10000800be000160a0004f0678004f05be0030
:100a20004f04be0000000600f0ff2f00f1ff27007a
:100a3000f9ff3700889fbe008a9fbe008c1f780098
:100a4000e4ff0700ebff330003866c006450e10015
:100a5000240032006420e100270032006150e100f0
:100a6000220032006120e100210032008b8542002b
:100a7000eb07b1000134b800003ab80008044200a6
:100a800089844a00013ab8000030b80088804000ec
:100a900009014a0004003300000040008180480042
:100aa000020149008b05e900c909dd0083017000de
:100ab0000100320013002000c814de004814dd00dd
:100ac0004709de001200b200c808de00088470008a
:100ad00085ff070001f0a1000cf0a70001f0a000c5
:100ae000cdff37006120e100cfff32000801be00da
:100af0000200be00f7ff37006150e100fcff3a0042
:100b0000c9ff3700889fbe008a9fbe00841f7800ff
:100b1000b0ff07004f00780011003300f0ff2f00f6
:100b2000838f6c0006003b00040565000a00a700e7
:100b30000800370009f0a600100020000800370068
:100b4000820f5400838f5c000300390010002000e6
:100b500001003e000000200009f0a7000000ea00ac
:100b60004f05be004f04be000000e000000006007c
:020000040000fa
:0200000401f009
:04000c00f8ff0000f9
:020000040000fa
:0200000401f009
:040010007dff000070
:020000040000fa
:0200000401f009
:040014007fff00006a
:020000040000fa
:0200000401f009
:04001c00dfff000002
:020000040000fa
:1000080090020000900200009002000090020000a0
:100018009002000090020000900200009002000090
:100028009002000090020000900200000208000008
:100038009002000090020000900200009002000070
:10004800940a000090020000900200009002000054
:100058009002000090020000900200009002000050
:100068009002000090020000900200009002000040
:100078009002000090020000900200009002000030
:100088009002000090020000900200009002000020
:100098009002000090020000900200009002000010
:1000a8009002000090020000900200009002000000
:1000b80090020000900200009002000090020000f0
:1000c80090020000900200009002000090020000e0
:1000d80090020000900200009002000090020000d0
:1000e80090020000900200009002000090020000c0
:1000f80090020000900200009002000090020000b0
:100108009002000090020000220900009002000006
:10011800900200009002000090020000900200008f
:10012800900200009002000090020000900200007f
:10013800900200009002000090020000900200006f
:100148009002000090020000900200005409000094
:10015800900200009002000090020000900200004f
:10016800900200009002000090020000900200003f
:10017800900200009002000090020000900200002f
:10018800900200009002000090020000900200001f
:10019800900200009002000090020000900200000f
:1001a80090020000900200009002000090020000ff
:1001b80090020000900200009002000090020000ef
:1001c80090020000900200009002000090020000df
:1001d80090020000900200009002000090020000cf
:1001e80090020000900200009002000090020000bf
:0801f8009002000090020000db
:020000040000fa
:10020800900200009002000090020000900200009e
:10021800900200009002000090020000900200008e
:100228009002000090020000900200000208000006
:10023800900200009002000090020000900200006e
:10024800940a000090020000900200009002000052
:10025800900200009002000090020000900200004e
:10026800900200009002000090020000900200003e
:10027800900200009002000090020000900200002e
:10028800900200009002000090020000900200001e
:10029800900200009002000090020000900200000e
:1002a80090020000900200009002000090020000fe
:1002b80090020000900200009002000090020000ee
:1002c80090020000900200009002000090020000de
:1002d80090020000900200009002000090020000ce
:1002e80090020000900200009002000090020000be
:1002f80090020000900200009002000090020000ae
:100308009002000090020000220900009002000004
:10031800900200009002000090020000900200008d
:10032800900200009002000090020000900200007d
:10033800900200009002000090020000900200006d
:100348009002000090020000900200005409000092
:10035800900200009002000090020000900200004d
:10036800900200009002000090020000900200003d
:10037800900200009002000090020000900200002d
:10038800900200009002000090020000900200001d
:10039800900200009002000090020000900200000d
:1003a80090020000900200009002000090020000fd
:1003b80090020000900200009002000090020000ed
:1003c80090020000900200009002000090020000dd
:1003d80090020000900200009002000090020000cd
:1003e80090020000900200009002000090020000bd
:0803f8009002000090020000d9
:020000040000fa
:100b70006400000000000000295c00000f3e00003f
:100b800000000000084100000000000000400000dc
:100b9000000000008c420000d00f0000494000001f
:020000040000fa
:100ba0000000fa0005e1a9000421a90004c1a90080
:100bb0004110200091407800f0ccb30000c06000ec
:100bc0000044a00004e1b7000000eb00000888002a
:100bd00000e22400100888008460a9009460a80046
:100be0000080fa00000006000000fa000000eb00a0
:100bf000004088006000b800104088002140880054
:100c00006000b80030408800414088006000b800b3
:100c100050408800614088006000b8007040880043
:100c2000814088006000b80090408800a1408800a2
:100c30006000b800b0408800c14088006000b80083
:100c4000d0408800e14088006000b800f040880093
:100c5000014188006000b8001041880021418800ef
:100c60006000b80030418800414188006000b80051
:100c700050418800614188006000b80070418800e0
:100c80008141880034010700c5ff07000080fa0099
:100c9000000006001000fa00889fbe0020079800a0
:100ca000310798004207980053079800640798009e
:100cb000750798006e019000fe0190004e009000b4
:100cc000de00900018fe0700022e8400132e840020
:100cd00058ff07002e019000be01900013fe070090
:100ce0000004be006e019000fe0190004e009000d6
:100cf000de0090000dfe0700222e8400332e8400bb
:100d00004cff07000001be000800be0007fe070000
:100d1000008fbe00c02d8400cf80de00c7fe07001c
:100d20001e01be00a0fe07000000e000010035002b
:100d300004003700c02d8400cf80de00bffe070016
:100d4000008fbe00c02d84000000ea00cf80de00ce
:100d5000bafe07001e01be0095fe07000000e0007d
:100d600001003c0005003700c02d84000000ea00af
:100d7000cf80de00b1fe0700008fbe001e00be0067
:100d80004f04be000080fa00000006000800fa00d0
:100d9000200798002e009000300798003e00900039
:100da000e20f50001f0032003e009000e20f5000a2
:100db00007003c003e0090000000e0000b00320005
:100dc0003e009000e10f50000d003200340037006b
:100dd0003e009000e30f50001d0032003e009000e6
:100de000e40f5000240032002d0037000000eb001b
:100df000100798000000eb00000f78002c0037006f
:100e0000e02d8400f12d84006bfe07001007980090
:100e1000e02d8400f12d840067fe0700000f7800ac
:100e200023003700e02d8400f12d840001f0a200a2
:100e300061fe070010079800e02d8400f12d84006a
:100e400001f0a2005cfe0700000f780018003700d8
:100e5000e02d8400f12d840057fe07001007980054
:100e6000e02d8400f12d840001f0a20052fe070065
:100e7000000f78000e003700e02d8400f12d840073
:100e800001f0a2004cfe070010079800e02d84003e
:100e9000f12d840048fe0700000f780004003700a1
:100ea0000000eb00100798000000eb00000f780036
:100eb0001e009000cf80de0060fe07001240800020
:100ec0002340800098fd07001041880021418800e0
:100ed0001e007800cf80de0058fe07003240800000
:100ee0004340800090fd0700304188004141880068
:100ef000d0408000e140800012418000234180000a
:100f000056418000674180000002be000600be001e
:100f100060ff07005041880061418800f040800078
:100f200001418000324180004341800076418000d1
:100f3000874180000002be000600be0055ff07008a
:100f4000704188008141880010418000214180006b
:100f5000d0408800e1408800f040800001418000de
:100f6000f0408800014188000080fa00000006007f
:100f70000600fa0010079800210798000000eb0017
:100f8000000f78002e00900080ff07001e009000e8
:100f9000e10f50000b003a00504180006141800099
:100fa00002002000831c2400a2fe0700020026008d
:100fb000a35e24005dfd0700fffd0700000f780021
:100fc0000d0037001e009000e20f50000a003a00aa
:100fd000704180008141800002002000831c2c00b1
:100fe00094fe070002002600a35e24004ffd0700c8
:100ff000f1fd0700000f78001e0078000080fa0065
:10100000000006003600f800809fbe00829fbe00f0
:10101000849fbe00869fbe003400f80000002000c0
:10102000a00188000000fa00004080000000e000fd
:101030000c003a00d800070090418000a1418000d8
:101040005040880061408800b0418000c14180006c
:101050007040880081408800100020000040880017
:101060001f003700cc00070090418000a1418000a4
:1010700090408800a1408800b0418000c1418000bc
:10108000b0408800c14088000000eb0000408800ac
:1010900090408000a140800052408000634080006a
:1010a00021fd070002002000030824007cfd07004a
:1010b0001040880021408800b0408000c14080007e
:1010c000724080008340800017fd0700020020006e
:1010d0000308240072fd070030408800414088006a
:1010e0008460a9000080fa003400f9004f03be00bc
:1010f0004f02be004f01be004f00be003600f90097
:10110000004006000000fa006000b800904188002e
:10111000a14188006000b800b0418800c14188004a
:101120000000eb00d04188000000eb00e0418800a7
:101130000000eb00f04188000000eb000042880056
:101140000000eb00104288000000eb002042880005
:101150000080fa00000006000000fa00e9ff070026
:10116000d462a900d482a900cca2a900ccc2a90053
:10117000d062a800d082a800c8a2a800c8c2a80057
:10118000c16920009140780000ceb30000c060002b
:101190003041b3009ce6b700d1692000914078004f
:1011a00000ceb30000c060004041b3009de6b70030
:1011b000016a20009140780000ceb30000c06000ba
:1011c0005040b300a0e6b700116a200091407800bb
:1011d00000ceb30000c060006040b300a1e6b700dd
:1011e0000000eb00000f88000000eb00800f88007b
:1011f000e1c1bf007040b300e1e1b700f1c1bf0041
:101200007040b300f1e1b700e0e1a80070162000e3
:10121000300f880070162000b00f88000000eb002f
:10122000200f88000000eb00a00f88009b40a80062
:101230009d60a8008b40a9008d60a9000080fa0085
:1012400000000600801f78003400f8000000200035
:10125000a00188000000fa00e1c1bf006840600002
:101260000004e00006003200f04180000000e800c9
:10127000f04188000000eb001042880005003700b4
:10128000f04180000000e900f041880010002000db
:10129000104288008b40a9000080fa003400f90059
:1012a0004f00780000400600801f78003400f800ee
:1012b00000002000a00188000000fa00f1c1bf007a
:1012c000684060000004e000060032000042800038
:1012d0000000e800004288000000eb002042880087
:1012e00005003700004280000000e900004288004d
:1012f00010002000204288008d60a9000080fa00c4
:101300003400f9004f007800004006000400fa00a5
:10131000104280000000e00005003200200f800035
:1013200081e92f00010040001007980002003700fb
:10133000200f800010079800204280000000e0008d
:1013400005003200a00f800081e92f00010040005d
:10135000000f780002003700a00f8000000f780017
:10136000f1418000801620000088b90080007800dc
:101370001e00900000804000d041880001428000a3
:10138000801620000088b9001e004000e04188005f
:101390000080fa00000006000000fa00dbff0700f2
:1013a000d0418000cf80de0024fd0700622e840043
:1013b000732e84009ffd0700422e8400532e84006c
:1013c0009cfd070002002000433b2400b4fc070002
:1013d00090418800a1418800e0418000cf80de007c
:1013e00016fd0700622e8400732e840091fd070015
:1013f000422e8400532e84008efd07000200200040
:10140000433b2400a6fc0700b0418800c14188008e
:101410000080fa00000006000000fa00cce2a900fb
:10142000cd02a900c8e2a900c902a900716c200080
:101430009140780000ceb30000c060002041b300ae
:10144000c7e6b700816c20009140780000ceb30061
:1014500000c060003041b300c8e6b70005000700d7
:1014600016000700e0fd070013e1a8000080fa0065
:10147000000006000000fa0013e1a9001221a900f3
:1014800012c1a9002111200091407800f0ccb300d6
:1014900000c060000044a00012e1b7000000eb00b3
:1014a0005008880000352c00700888008500a900cd
:1014b0009500a8000080fa00000006000000fa0075
:1014c000411820009140780080cfb30000c0600038
:1014d00084e1b7008461a8004118200091407800a1
:1014e00080cfb30000c060006040b30084e1b7006b
:1014f000a11820009140780080cfb30000c06000a8
:101500008ae1b7008a61a800a11820009140780004
:1015100080cfb30000c060006040b3008ae1b70034
:101520000080fa00000006003600f800809fbe0030
:10153000829fbe00849fbe00869fbe003400f800dc
:1015400000002000a00188000000fa000900070048
:101550008500a9000080fa003400f9004f03be00a6
:101560004f02be004f01be004f00be003600f90022
:10157000004006000200fa0040428000000f7800a0
:101580001e007800e20f5000230032001e00780099
:10159000e20f500007003e001e0078000000e0004f
:1015a0000b0032001e007800e10f500011003200e5
:1015b000340037001e007800e30f50001f00320097
:1015c0001e007800e40f5000250032002d00370087
:1015d000d422a900d402a900cc62a900cc42a9005f
:1015e0000000eb002d0007000000eb0033000700b7
:1015f00028003700d422a900d402a800cc62a80099
:10160000cc42a90010002000240007001000200098
:101610002a0007001f003700d422a800d402a90026
:10162000cc62a900cc42a800200020001b000700cb
:10163000200020002100070016003700d422a90056
:10164000d402a800cc62a900cc42a900100020005e
:101650001200070020002000180007000d003700ce
:10166000d422a900d402a900cc62a800cc42a900cf
:101670002000200009000700100020000f000700d4
:10168000040037000000eb00040007000000eb003e
:101690000a0007000080fa00000006000200fa00bd
:1016a000000f78009e0078001000200030fe070038
:1016b000000c88000080fa00000006000200fa001a
:1016c000000f78009e0078002000200028fe070010
:1016d000300c88000080fa00000006000000fa00cc
:1016e000e0012000303a880044c7bf00f043b20058
:1016f00044e7b700417420009140780000ceb30069
:1017000000c0600044e7b7003200200081072000dd
:10171000a0092000337420008149780080497800b6
:10172000824978001200200061042000700520002a
:10173000237420008149780080497800824978002c
:1017400043c7bf0002c7b3008240600000c3b300bc
:1017500080cf5000faff3a000080fa000000060037
:101760000000fa00d422a900d402a900cc62a9008a
:10177000cc42a900d022a900d002a900c862a900c9
:10178000c842a9002ce3a8002cc3a8002ca3a800e1
:101790002c83a8000080fa00000006000000fa0078
:1017a00011e1a9001021a90010c1a9000111200018
:1017b0009140780000c3b30000c0700010e1b70092
:1017c0000000eb003008880090d0230060088800fb
:1017d00011e1a8000080fa00000006000000fa00f5
:1017e000beff0700deff0700ecff07000aff07004f
:1017f00010002000404288000a00370084c0bf006b
:1018000001c8b300014060000004e000fbff3200ab
:1018100084e0a90013e1a90005e1a90013e1a800f3
:1018200005e1a800304280000000e000f3ff3a002c
:0c1830000000eb000080fa000000060041
:020000040000fa
:10183c004608000002000000020000000100000049
:10184c004808000002000000020000000000000038
:10185c003208000014000000000000000008000026
:0c186c003200000000000000000000003e
:00000001FF
